:020000040000FA
:060000000A128A110C280F
:10000800FE00030EF0000A08F1000A168A110A2EF3
:100018000A128A110F288313C230FD001530FE0022
:100028009B30FF00A03084000A168A113E250A1270
:100038008A116F30FD000730FE00FD30FF006C3084
:1000480084000A168A113E250A128A1183160313A0
:10005800C201C30183120313DE01DF01E001E101E4
:10006800E201E301E401E501E601E701E801E90154
:10007800EA01EB01FA01FB0183010A128A15BB2987
:1000880083120313DA000A168A1197260A128A11B4
:100098001430831203136D06031D53285428E829CE
:1000A8000A168A112D250A128A114C30F600913051
:1000B800F7008030F8000A128A1509200A128A11FE
:1000C8007B0883120313D4005407A03E84008313D3
:1000D8000008F600840A00088403F7008630F80058
:1000E8000A128A1509200A128A114630F600913040
:1000F800F700C030F8000A128A1509200A128A117E
:10010800C63083120313A0000A30F2000030F30057
:100118006B08D400D5015408F4005508F5000A12FC
:100128008A1538200A128A117208303E0A168A1176
:100138004D250A128A11C73083120313A0000A3012
:10014800F2000030F3006B08D400D5015408F40025
:100158005508F5000A168A11ED260A128A11720846
:10016800303E0A168A114D250A128A11C8308312A8
:100178000313A0003A300A168A114D250A128A1173
:10018800C93083120313A0000A30F2000030F300D4
:100198006A08D400D5015408F4005508F5000A127D
:1001A8008A1538200A128A117208303E0A168A11F6
:1001B8004D250A128A11CA3083120313A0000A308F
:1001C800F2000030F3006A08D400D5015408F400A6
:1001D8005508F5000A168A11ED260A128A117208C6
:1001E800303E0A168A114D250A128A111B30F60074
:1001F8009130F7009530F8000A128A1509200A1282
:100208008A11333083120313D600BB30D500DF3098
:10021800D400D40B0D29D50B0D29D60B0D290A16A0
:100228008A112D250A128A118530F6009030F700C0
:100238008030F8000A128A1509200A128A112B3018
:10024800F6009130F700C030F8000A128A1509202C
:100258000A128A110030F6009030F700D030F8000A
:100268000A128A1509200A128A11831203136B08CD
:10027800D400D5015408F2005508F3003C30F400CE
:100288000030F5000A128A11D8270A128A1183123F
:1002980003136A087207DE00003003180130730781
:1002A800DF005F08E1005E08E0005E08F2005F081A
:1002B800F3000030F31BFF30F400F50001300A12A0
:1002C8008A111E270A128A11750883120313AD00BA
:1002D8007408AC007308AB007208AA003E30A9008D
:1002E800EB30A8008530A7001F30A6000A128A113B
:1002F800D9230A128A11831203132908C300280874
:10030800C2002708C1002608C0000A128A159F20CB
:100318000A128A11831203134108E5004008E40019
:100328005E08F2005F08F3000030F31BFF30F400B2
:10033800F50001300A128A111E270A128A1175085F
:1003480083120313AD007408AC007308AB00720885
:10035800AA003D30A900F530A800C230A7008F30B0
:10036800A6000A128A11D9230A128A1183120313CA
:100378002908C3002808C2002708C1002608C000B1
:100388000A128A159F200A128A1183120313410840
:10039800E7004008E6006409D4006509D500D40ADE
:1003A8000319D50A66085402D6006708031C670AB1
:1003B8005502D7005E085607E2005F0803185F0A77
:1003C8005707E300071512151F305A06031DED29BC
:1003D800EE29F229071112110530EE006B08D4003E
:1003E800D5015408F2005508F3003C30F400003001
:1003F800F5000A128A11D8270A128A1183120313E8
:100408006A087207DE000030031801307307DF0046
:1004180008307B020318112A122A692A640860022C
:10042800D4006508031C650A6102D50055085F02FF
:10043800031D202A54085E02031C232A242A302A7A
:100448006930F6009130F7008B30F8000A128A15EF
:1004580009200A128A111E2B6409D4006509D500E7
:10046800D40A0319D50A62085402D6006308031C8B
:10047800630A5502D70060085607D80061080318B8
:10048800610A5707D90059085F02031D4D2A580809
:100498005E02031C502A512A5D2A5230F600913020
:1004A800F7008B30F8000A128A1509200A128A11FF
:1004B8001E2B4030F6009130F7008B30F8000A12FE
:1004C8008A1509200A128A111E2B08307B06031D83
:1004D8006E2A6F2A012B5E08F2005F08F3000030D5
:1004E800F31BFF30F400F50001300A128A111E27B1
:1004F8000A128A11750883120313CB007408CA0004
:100508007308C9007208C8006008F2006108F300A7
:100518000030F31BFF30F400F50001300A128A1195
:100528001E270A128A11750883120313C70074085C
:10053800C6007308C5007208C4006008F2006108AC
:10054800F3000030F31BFF30F400F50001300A120D
:100558008A111E270A128A11750883120313AD0027
:100568007408AC007308AB007208AA003E30A900FA
:10057800CC30A800CC30A700CD30A6000A128A11D2
:10058800D9230A128A11831203132908C3002808E1
:10059800C2002708C1002608C0000A168A11BD2516
:1005A8000A128A11831203134308CF004208CE00AF
:1005B8004108CD004008CC000A128A1517210A12FA
:1005C8008A11031CE82AE92AF52A5230F6009130EC
:1005D800F7008B30F8000A128A1509200A128A11CE
:1005E8001E2B4030F6009130F7008B30F8000A12CD
:1005F8008A1509200A128A111E2B09307B06031D51
:10060800062B072B132B4030F6009130F7008B3068
:10061800F8000A128A1509200A128A111E2B69305D
:10062800F6009130F7008B30F8000A128A1509207D
:100638000A128A11C63083120313A0000A30F2008E
:100648000030F3006B08D400D5015408F4005508B5
:10065800F5000A128A1538200A128A117208303EEB
:100668000A168A114D250A128A11C73083120313FC
:10067800A0000A30F2000030F3006B08D400D50166
:100688005408F4005508F5000A168A11ED260A12D6
:100698008A117208303E0A168A114D250A128A11EB
:1006A800C83083120313A0003A300A168A114D2568
:1006B8000A128A11C93083120313A0000A30F2000B
:1006C8000030F3006A08D400D5015408F400550836
:1006D800F5000A128A1538200A128A117208303E6B
:1006E8000A168A114D250A128A11CA308312031379
:1006F800A0000A30F2000030F3006A08D400D501E7
:100708005408F4005508F5000A168A11ED260A1255
:100718008A117208303E0A168A114D250A128A116A
:10072800831203136A08031D9A2B9B2BD82B6B0883
:10073800031D9F2BA02BD82B0711121187140A1603
:100748008A112D250A128A113230F6009030F700EE
:100758008030F8000A128A1509200A128A114130DD
:10076800F6009030F700C030F8000A128A15092008
:100778000A128A11333083120313D600BB30D50016
:10078800DF30D400D40BC62BD50BC62BD60BC62B0B
:10079800831203138710EE01EE0A1130ED000A16DA
:1007A8008A112D250A128A110800831203132908B9
:1007B8008039B3002908AE002E07B900A81FE52B21
:1007C800E62BE72B391439080319EB2BEC2BFB2B01
:1007D800390A031DF02BF12BF92B0030A90000304A
:1007E800A8000030A7000030A600A817032C00308E
:1007F800A9000030A8000030A7000030A6002D088E
:100808008039FF007F08B3062D08AE002E07B4001C
:10081800AC1F0F2C102C112C341434080319152C70
:10082800162C252C340A031D1A2C1B2C232C0030C3
:10083800AD000030AC000030AB000030AA00AC17AF
:100848002D2C0030AD000030AC000030AB00003083
:10085800AA0034080319312C322C372C3908031D0F
:10086800362C372C402C0030A9000030A80000306E
:10087800A7000030A6001D2F2608F2002C080A1633
:100888008A11E1250A128A11730883120313BF0023
:100898007208BE003E08AE00AF01B001B1013108D8
:1008A800B8003008B7002F08B6002E08B5003F087A
:1008B800AE00AF01B001B1013108BD003008BC0085
:1008C8002F08BB002E08BA002708F2002B080A16CA
:1008D8008A11E1250A128A11730883120313BF00D3
:1008E8007208BE003E08AE00AF01B001B1012E088B
:1008F800B5072F0803110318013E0319842CB60706
:10090800300803110318013E03198B2CB70731086F
:1009180003110318013E0319922CB8073F08AE00D3
:10092800AF01B001B1012E08BA072F08031103184F
:10093800013E0319A02CBB07300803110318013E20
:100948000319A72CBC07310803110318013E03192A
:10095800AE2CBD072808F2002A080A168A11E125DC
:100968000A128A11730883120313BF007208BE00AB
:100978003E08AE00AF01B001B1012E08B5072F083F
:1009880003110318013E0319CA2CB60730080311D6
:100998000318013E0319D12CB707310803110318B6
:1009A800013E0319D82CB8073F08AE00AF01B001CB
:1009B800B1012E08BA072F0803110318013E0319C5
:1009C800E62CBB07300803110318013E0319ED2C70
:1009D800BC07310803110318013E0319F42CBD07A5
:1009E8000830AE000310B50DB60DB70DB80DAE0B3F
:1009F800F62C2708F2002A080A168A11E1250A129D
:100A08008A11730883120313BF007208BE003E08E0
:100A1800AE003F08AF00B001B1012E08B5072F089E
:100A280003110318013E03191A2DB60730080311E4
:100A38000318013E0319212DB707310803110318C4
:100A4800013E0319282DB8072608F2002B080A16BC
:100A58008A11E1250A128A11730883120313BF0051
:100A68007208BE003E08AE003F08AF00B001B101F9
:100A78002E08B5072F0803110318013E0319452D49
:100A8800B607300803110318013E03194C2DB707A8
:100A9800310803110318013E0319532DB807083014
:100AA800AE000310B50DB60DB70DB80DAE0B552D34
:100AB8002608F2002A080A168A11E1250A128A1164
:100AC800730883120313BF007208BE003E08AE000D
:100AD8003F08AF00B001B1012E08B5072F08031178
:100AE8000318013E0319792DB607300803110318BE
:100AF800013E0319802DB707310803110318013E81
:100B08000319872DB8072708F2002C080A168A113E
:100B1800E1250A128A11730883120313BF007208B1
:100B2800BE003E08AE003F08AF00B001B1012E087C
:100B3800BA072F0803110318013E0319A42DBB0798
:100B4800300803110318013E0319AB2DBC07310807
:100B580003110318013E0319B22DBD072808F2003E
:100B68002B080A168A11E1250A128A1173088312C2
:100B78000313BF007208BE003E08AE003F08AF0076
:100B8800B001B1012E08BA072F0803110318013E5E
:100B98000319CF2DBB07300803110318013E0319B1
:100BA800D62DBC07310803110318013E0319DD2DAA
:100BB800BD072808F2002C080A168A11E1250A1236
:100BC8008A11730883120313BF007208BE003E081F
:100BD800AE003F08AF00B001B10108300310AE0D00
:100BE800AF0DB00DB10DFF3E031DF22D2E08BA0753
:100BF8002F0803110318013E0319032EBB07300801
:100C080003110318013E03190A2EBC07310803110A
:100C18000318013E0319112EBD073508AE0036082A
:100C2800AF003708B0003808B10018300310B10C15
:100C3800B00CAF0CAE0CFF3E031D1A2E2E08BA07DF
:100C48002F0803110318013E03192B2EBB07300888
:100C580003110318013E0319322EBC073108031192
:100C68000318013E0319392EBD070830AE000310E2
:100C7800B50DB60DB70DB80DAE0B3B2E39083407C0
:100C8800AE00AF01AF0D2E08823EBE002F0803183C
:100C9800013EFF3EBF006D2E0130AE000310BA0DBD
:100CA800BB0DBC0DBD0DAE0B522EB81F5C2E5D2EBC
:100CB8005E2E3A140130AE000310B50DB60DB70D17
:100CC800B80DAE0B602EFF30BE070318BF0AFF3009
:100CD800BF07BC1F702E712E502EB401B81F752E81
:100CE800762E922EFF303505AE00FF303605AF0068
:100CF800FF303705B0007F303805B10031083004C7
:100D08002F042E040319892E8A2E8D2EB401B40ABD
:100D1800922E3A1C902E912E922E8A2E3408031968
:100D2800962E972EC82E0130BA07003003180130CE
:100D3800BB07003003180130BC070030031801302E
:100D4800BD073D1CA82EA92EC82E3A08AE003B08A8
:100D5800AF003C08B0003D08B1000130B200310DD1
:100D6800B10CB00CAF0CAE0CB20BB32E3108BD00F9
:100D78003008BC002F08BB002E08BA000130BE079F
:100D88000318BF0A0030BF073F08803AFF008030D1
:100D98007F02031DD12EFF303E02031CD42ED52E18
:100DA800E02E7F3083120313BD008030BC0000307A
:100DB800BB000030BA00112F831203133F08803A9A
:100DC800FF0080307F02031DEB2E01303E02031826
:100DD800EE2EEF2EFB2E003083120313BD000030E1
:100DE800BC000030BB000030BA00B301112F8312E1
:100DF80003133E08B900FF30BA05FF30BB057F304A
:100E0800BC050030BD05391C0A2F0B2F0C2FBC1751
:100E18003908AE0003102E0CBD003308FF007F0810
:100E2800BD043D08A9003C08A8003B08A7003A08F3
:100E3800A600080083120313A00020080319252F19
:100E4800262F3A2FF51F292F2A2F3A2F7209A20091
:100E58007309A3007409A4007509A500A20A03195F
:100E6800A30A0319A40A0319A50A422F7508A500A5
:100E78007408A4007308A3007208A200750874041B
:100E880073047204031D492F4A2F532F0030F500B5
:100E98000030F4000030F3000030F200D72F963015
:100EA800A100632F0130FF007F08A1070130031064
:100EB800A50CA40CA30CA20CFF3E031D5B2FFE3057
:100EC8002505031D682F692F562F852F0130FF0038
:100ED8007F08A1070130A207003003180130A307DB
:100EE800003003180130A407003003180130A507AB
:100EF80001300310A50CA40CA30CA20CFF3E031D8B
:100F08007D2FFF302505031D8A2F8B2F6A2F972FE2
:100F18000130A1020130F6000310A20DA30DA40DAB
:100F2800A50DF60B902FA41B9A2F9B2FA12F0230F3
:100F380021020318A02FA12F8C2F2118A42FA52F31
:100F4800AD2FFF30A205FF30A3057F30A405FF3089
:100F5800A5050310A10C2108F600F701F801F90115
:100F680018300310F60DF70DF80DF90DFF3E031DAF
:100F7800B52F7608A2047708A3047808A404790892
:100F8800A50420080319C92FCA2FCF2FF51FCD2F6D
:100F9800CE2FCF2FA5172508F5002408F400230825
:100FA800F3002208F2000800F601F701721CDD2F99
:100FB800DE2FE42F7408F6070318F70A7508F707F9
:100FC80001300310F40DF50DFF3E031DE52F013030
:100FD8000310F30CF20CFF3E031DEC2F7208730490
:100FE800031DF72FF82FDA2F7708F3007608F200A1
:100FF8000800013411340134FA30831603139200C7
:101008008C148312031312110800F20178080A16CF
:101018008A117B250A128A152728F201F20A770815
:10102800FF00760884000A168A117B210A128A15A5
:101038000A168A117B250A128A150130F607031849
:10104800F70A0030F707770883120313FF007608C2
:1010580084000A168A117B210A128A15003A031D98
:101068003628372811280800F701F31F3C283D28A7
:101078004428F209F309F20A0319F30AF701F70AF7
:10108800F51F472848285128F409F509F40A0319D7
:10109800F50A0130FF007F08F706F801F901720828
:1010A80073040319582859289028F601F60A672866
:1010B80001300310F20DF30DFF3E031D5D280130D2
:1010C800FF007F08F607F31F6A286B285C280130A9
:1010D8000310F80DF90DFF3E031D6C287308750207
:1010E800031D782872087402031C7B287C28832837
:1010F8007208F4027308031CF503F5027814013032
:101108000310F30CF20CFF3E031D84280130F60295
:10111800031D8F2890286B28770803199428952891
:101128009A28F809F909F80A0319F90A7908F3005D
:101138007808F2000800031083120313420D430DD0
:10114800C9004908031DA928AA28B3280030C300EC
:101158000030C2000030C1000030C000162940082D
:10116800C4004108C5004208C6004308C7001F3034
:101178000310C70CC60CC50CC40CFF3E031DBC28CD
:101188004408C800C217FF30C005FF30C105FF3052
:10119800C2050030C3059630C902C91FD428D52816
:1011A800EF284908803A973E0318DB28DC28DD2819
:1011B800AA2801300310C30CC20CC10CC00CFF3E9E
:1011C800031DDE280130FF007F08C907031DED2835
:1011D800EE28DD28062920304902031CF428F528CA
:1011E8000129AA280130C4000310C00DC10DC20D89
:1011F800C30DC40BF8280130C9024908031D05298D
:101208000629F628480803190A290B291629C009AE
:10121800C109C209C309C00A0319C10A0319C20ACC
:101228000319C30A08000030831203134805D000CD
:1012380000304905D10080304A05D2007F304B0587
:10124800D3005308520451045004031D2C292D299E
:1012580035290030CB000030CA000030C90000300A
:10126800C80000304C05D00000304D05D10080305A
:101278004E05D2007F304F05D30053085204510465
:101288005004031D4829492951290030CF00003056
:10129800CE000030CD000030CC00CB1F542955299A
:1012A80079290030D0000030D1000030D2008030E1
:1012B800D3004808D0024908031C490F642965294E
:1012C800D1024A08031C4A0F6A296B29D2024B082B
:1012D800031C4B0F70297129D3025308CB00520805
:1012E800CA005108C9005008C800CF1F7C297D29B1
:1012F800A1290030D0000030D1000030D200803069
:10130800D3004C08D0024D08031C4D0F8C298D29A1
:10131800D1024E08031C4E0F92299329D2024F087E
:10132800031C4F0F98299929D3025308CF0052085C
:10133800CE005108CD005008CC008030CB0680305C
:10134800CF064F084B02031DB3294E084A02031D5E
:10135800B3294D084902031DB3294C084802031854
:10136800B629B729B9290310BA29031408000A169F
:101378008A1162250A128A155030F6009030F7005B
:101388008130F8000A128A1509200A128A150930D4
:10139800F6009130F700C430F8000A128A150920C7
:1013A8000A128A152230F6009030F7009130F800C2
:1013B8000A128A1509200A128A15F6297030831232
:1013C8000313DB001730DC000130DB020030031CA4
:1013D800DC03DC025B0A031DF5295C0A031DF52901
:1013E800F629E82901300A168A11A1270A128A1556
:1013F8002F3A031D002A012AE2290A168A114627D4
:101408000A128A1501300A168A11A1270A128A15AA
:1014180083120313DD00B7305D06031D142A152A55
:101428001F2A6E03031D192A1A2A1F2A0230EE00EA
:101438001230ED005A2AB7305D06031D242A252AEA
:101448005A2A02306E06031D2A2A2B2A5A2A0A1201
:101458008A1599240A128A15033083120313EE00A1
:101468000A168A112D250A128A157830F60090304E
:10147800F7008030F8000A128A1509200A128A1526
:10148800B530F6009030F700C030F8000A128A151F
:1014980009200A128A15E130F6009030F7009030E2
:1014A800F8000A128A1509200A128A152F308312A9
:1014B80003135D06031D612A622A982A05306E0609
:1014C800031D672A682A982A121507150430EE00AA
:1014D800982A5D080A128A15AD220A128A15A62AC8
:1014E8005D080A128A15A3230A128A15A62A2F3024
:1014F8005D06031D802A812A862A0430EE001430F6
:10150800ED00062A1F305D06031D8B2A8C2A062A49
:10151800EE01EE0A1130ED00062A5D080A128A1162
:1015280044200A128A15A62A6E08013A03196D2A60
:10153800033A0319742A013A03197B2A073A031953
:10154800912AA62A83120313ED01062A0A128A1188
:101558000C2883120313A40011306D06031DB52A4D
:10156800B62ABC2A0A168A112D250A128A15FB01E9
:101578003730831203132406031DC32AC42AD42A2E
:101588000130FF007F08FB070C307B06031DCD2AC6
:10159800CE2ACF2AFB010A168A112D250A128A158E
:1015A8001130F6009030F7008030F8000A128A15E2
:1015B80009200A128A15C03083120313A0002A30AA
:1015C8000A168A114D250A128A150A307B02031859
:1015D800EE2AEF2A2F2B7B0883120313A20022077F
:1015E800A03E840083130008F600840A00088403E0
:1015F800F700C230F8000A128A1509200A128A1563
:101608007B0883120313A2002207A23E84008313DF
:101618000008F600840A00088403F7009230F800F6
:101628000A128A1509200A128A157B0883120313E5
:10163800A2002207A43E840083130008F600840A4F
:1016480000088403F700D230F8000A128A1509202E
:101658000A128A15A22B0A307B06031D342B352B60
:101668006D2B7B0883120313A2002207A03E84007F
:1016780083130008F600840A00088403F700C230C8
:10168800F8000A128A1509200A128A157B088312A3
:101698000313A2002207A23E840083130008F60069
:1016A800840A00088403F7009230F8000A128A15A9
:1016B80009200A128A15831603132008F600210848
:1016C800F700D230F8000A128A1509200A128A1582
:1016D800A22B0B307B06031D722B732BA22B7B08CE
:1016E80083120313A2002207A03E8400831300087C
:1016F800F600840A00088403F700C230F8000A12D2
:101708008A1509200A128A15831603132008F60081
:101718002108F7009230F8000A128A1509200A12E7
:101728008A15831603132208F6002308F700D2301F
:10173800F8000A128A1509200A128A15080083126D
:101748000313A40012306D06031DAB2BAC2BB22B78
:101758000A168A112D250A128A15FA0137308312C2
:1017680003132406031DB92BBA2BCA2B0130FF0023
:101778007F08FA0705307A06031DC32BC42BC52B37
:10178800FA010A168A112D250A128A155E30F6000A
:101798009030F7008030F8000A128A1509200A12E2
:1017A8008A15C03083120313A0002A300A168A1142
:1017B8004D250A128A1503307A020318E42BE52B0B
:1017C800252C7A0883120313A2002207B83E84004E
:1017D80083130008F600840A00088403F700C23067
:1017E800F8000A128A1509200A128A157A08831243
:1017F8000313A2002207BA3E840083130008F600F0
:10180800840A00088403F7009230F8000A128A1547
:1018180009200A128A157A0883120313A2002207E4
:10182800BC3E840083130008F600840A0008840381
:10183800F700D230F8000A128A1509200A128A1510
:10184800982C03307A06031D2A2C2B2C632C7A083B
:1018580083120313A2002207B83E840083130008F2
:10186800F600840A00088403F700C230F8000A1260
:101878008A1509200A128A157A0883120313A2000E
:101888002207BA3E840083130008F600840A000881
:101898008403F7009230F8000A128A1509200A1208
:1018A8008A15831603133808F6003908F700D23072
:1018B800F8000A128A1509200A128A15982C043091
:1018C8007A06031D682C692C982C7A088312031356
:1018D800A2002207B83E840083130008F600840A99
:1018E80000088403F700C230F8000A128A1509209C
:1018F8000A128A15831603133808F6003908F70008
:101908009230F8000A128A1509200A128A158316DD
:1019180003133A08F6003B08F700D230F8000A1221
:101928008A1509200A128A150800812D2130831290
:101938000313EA00EB01A72D293083120313EA00F1
:101948009E2C2D3083120313EA009E2C7A08003A4D
:101958000319A02C013A03199A2C033A0319A02C55
:10196800013A0319A52C073A0319A52CA72D2B30EA
:1019780083120313EA009E2C323083120313EA0009
:101988009E2C393083120313EA009E2C7A08003A01
:101998000319C02C013A0319BB2C033A0319C02CB4
:1019A800013A0319C52C073A0319C52CA72D1A307B
:1019B80083120313EA009E2C1F3083120313EA00DC
:1019C8009E2C7A08003A0319DB2C013A0319DB2C08
:1019D800033A0319DB2C013A0319E02C073A0319DF
:1019E800E02CA72D103083120313EA00EB01EB0A59
:1019F800A72D243083120313EA00FA2C1F30831218
:101A08000313EA00EB011E2D243083120313EA00AE
:101A1800062D7A08003A0319022D013A0319022DFE
:101A2800033A0319022D013A0319082D073A03193D
:101A3800082D1E2D1D3083120313EA009E2C2B3017
:101A480083120313EA00EB01502D35308312031380
:101A5800EA00272D83120313EA01EB01EB0A502D4C
:101A68007A08003A0319292D013A0319232D033A5C
:101A78000319292D013A03192E2D073A03192E2D82
:101A8800502D123083120313EA00EB01612D14303C
:101A980083120313EA00492D7A08003A03194B2DE3
:101AA800013A0319452D033A03194B2D013A03193D
:101AB8004B2D073A03194B2D612D06308312031362
:101AC800EA009E2C103083120313EA009E2C153076
:101AD80083120313EA009E2C7A08003A03196B2D2F
:101AE800013A0319662D033A03196B2D013A0319BC
:101AF800DB2C073A0319DB2CA72D7B08003A0319C6
:101B0800AA2C013A0319CA2C033A0319E52C013A05
:101B18000319F62C073A0319FD2C013A03190D2D68
:101B2800033A03191E2D013A0319342D0F3A0319EC
:101B3800502D013A0319612D033A0319702D013A0A
:101B48000319702DA72D0800750880398312031317
:101B5800A8007508A0002007AA00F41FB42DB52D11
:101B6800B62D2A142A080319BA2DBB2DCB2D2A0A03
:101B7800031DBF2DC02DC82D0030F5000030F40026
:101B88000030F3000030F200F417F501D32D0030D7
:101B9800F5000030F4000030F3000030F20079085E
:101BA8008039A900290828060319DB2DDC2DDD2D35
:101BB80028177908A0002007A900F81FE42DE52DB3
:101BC800E62D291429080319EA2DEB2DFB2D290AE6
:101BD800031DEF2DF02DF82D0030F9000030F8002E
:101BE8000030F7000030F600F817F901032E003036
:101BF800F9000030F8000030F7000030F6002A083D
:101C080029020318082E092E2F2E281F0C2E0D2E00
:101C1800112E8030FF007F08A8062A08AB0029088B
:101C2800AA002B08A9007208AB007608F2002B085E
:101C3800F6007308AB007708F3002B08F700740868
:101C4800AB007808F4002B08F8007508AB00790899
:101C5800F5002B08F900AB012908A000A101210813
:101C6800A3002A082002A200031CA3032308803A29
:101C7800FF0080307F02031D432E1A302202031C0E
:101C8800462E472E7E2E7508740473047204031DB5
:101C98004E2E502E0130512E003083120313AB000C
:101CA8000030F5000030F4000030F3000030F2009E
:101CB8002908AA00862E2B1C622E632E6A2E2B085A
:101CC800A0000310200C0138AB006C2E0310AB0CE5
:101CD800721C6F2E702E712EAB170130A000750D7F
:101CE800F50CF40CF30CF20CA00B732E0130FF0072
:101CF8007F08AA078312031329082A02031C852ECA
:101D0800862E5F2E281B892E8A2ED32E2A08031D85
:101D18008E2E8F2E982E0030F5000030F400003003
:101D2800F3000030F200FF2F7608F207770803115E
:101D38000318013E0319A12EF307780803110318AD
:101D4800013E0319A82EF407790803110318013E70
:101D58000319AF2EF507751CB22EB32E872F2B1C37
:101D6800B62EB72EBE2E2B08A0000310200C01386B
:101D7800AB00C02E0310AB0C721CC32EC42EC52E94
:101D8800AB170130A000750DF50CF40CF30CF20C38
:101D9800A00BC72E0130FF007F08AA07872F750800
:101DA800803AFF007908803A7F02031DE52E780803
:101DB8007402031DE52E77087302031DE52E7608CD
:101DC80072020318E82EE92E412FFF30A000FF30E1
:101DD800A100FF30A200FF30A3007608A400770816
:101DE800A5007808A6007908A7007208A40273085D
:101DF800031C730F002F012FA5027408031C740F16
:101E0800062F072FA6027508031C750F0C2F0D2F20
:101E1800A7022408A00725080318250F142F152F3B
:101E2800A10726080318260F1A2F1B2FA207270819
:101E38000318270AA3072308F5002208F40021083D
:101E4800F3002008F2008030FF007F08A806AB09E5
:101E5800AB0A2B08031D312F322F4F2F0130F20709
:101E6800003003180130F307003003180130F4077D
:101E7800003003180130F5074F2F7608F202770873
:101E8800031C770FF3027808031C780FF402790813
:101E9800031C790FF5027508740473047204031D9A
:101EA800562F572F832F2B08031D5B2F5C2F832F53
:101EB8000030F5000030F4000030F3000030F2008C
:101EC800FF2F0130A0000310F20DF30DF40DF50DF6
:101ED800A00B672FAB1F712F722F732F72142B1C3F
:101EE800762F772F7A2F0314AB0D7C2F0310AB0DB1
:101EF8002A080319802F812F832F0130AA02F41F8B
:101F0800862F872F652FA901AB1F8B2F8C2F9A2F18
:101F18002B087F390319912F922F952FA901A90A10
:101F28009A2F721C982F992F9A2F922F29080319EC
:101F38009E2F9F2FD32F0130F20700300318013056
:101F4800F307003003180130F4070030031801309C
:101F5800F507751CB02FB12FD32F7208A000730896
:101F6800A1007408A2007508A3000130A400230D85
:101F7800A30CA20CA10CA00CA40BBB2F2308F500EA
:101F88002208F4002108F3002008F2002A0A0319A5
:101F9800CE2FCF2FD32F0130FF007F08AA072A0AA0
:101FA8000319D72FD82FDD2F2A08031DDC2FDD2F8B
:101FB800EB2F0030F5000030F4000030F300003063
:101FC800F2002A08031DE92FEA2FEB2FA8012A1C8B
:101FD800EE2FEF2FF12FF417F52F7F30FF007F083A
:101FE800F4052A08A0000310200CF500A81FFD2FF7
:101FF800FE2FFF2FF517080035342D345334743471
:102008006134723474342034203436342D345034EE
:10201800613475347334653400345734613473343F
:10202800683469346E3467342034503472346F3411
:102038006734723461346D34733400345734613426
:102048007334683469346E34673420344D34613401
:102058006334683469346E3465340034503472340F
:102068006F3467342E3443346F346D3470346C34C9
:1020780065347434653464340034523465346D34F2
:102088006F3476346534203443346C346F347434AC
:1020980068346534733400345034723465347334BE
:1020A800733420346B3465347934353420347434E3
:1020B8006F340034573461347434653472342034E6
:1020C8004C346534763465346C343A3400345034E6
:1020D8006C346534613473346534203443346C347F
:1020E8006F34733465340034503472346534733467
:1020F8007334203453347734693474346334683433
:102108000034463475346E346334743469346F344F
:102118006E3420342D342034003444346F346F341A
:10212800723420343A3420344F34503445344E34E9
:10213800003450346F3477346534723469346E3413
:10214800673420344F344E340034453463346F34AC
:10215800203463346F34743474346F346E347334AD
:1021680000345334573435343A34203453345434E7
:102178004134523454340034413471347534613448
:102188002034733474346F34723465340034533407
:102198007434613469346E34203477346134733480
:1021A8006834003442346534643420347334683419
:1021B80065346534743473340034533457343634E6
:1021C8003A342034533454344F3450340034443483
:1021D80065346C346934633461347434653473340D
:1021E8000034573461347334683420346F346E34B7
:1021F8006C3479340034523469346E347334653451
:102208002B34443472347934003450346F34773496
:102218006534723420344F344E34003444347234CC
:10222800793420346F346E346C3479340034283483
:102238004D344D343A3453345334293400345734FC
:102248006F346F346C3465346E3473340034543402
:1022580069346D3465343A34203400344D3465348F
:102268006434693475346D340034573468346934EF
:1022780074346534733400345334703469346E34D0
:1022880020340034543449344D3445343A3400341D
:10229800503452344F3447343A3400345234693469
:1022A8006E347334653400344434613469346C34C6
:1022B8007934003448346534613476347934003400
:1022C80048346934673468340034573461347334BB
:1022D800683400344134753474346F3400344C3409
:1022E8006F34773400344D34613478340034FF1B54
:1022F800852983137F1883170008840A0319FF0AA6
:1023080008007F087F398A000408840A0319FF0A35
:02231800820041
:102A38008316031306083F3886000800831603131D
:102A48008801091189100A168A1144260A168A1162
:102A58000800F20101300A168A117B250A168A112C
:102A6800A630F600F60B362D000008007E088A0016
:102A78007F0882000A168A113A250A168A118000F0
:102A8800840A04087D0603190034FF0A0319FE0AA4
:102A98003E2D83120313A100F20120080A168A11A1
:102AA8007B250A168A11F201F20A83120313210800
:102AB8000A168A117B250A168A1108000A168A1135
:102AC8001C250A168A110A168A1122250A168A1145
:102AD80083160313071187108312031387100A1232
:102AE8008A1500200A168A110B178B170800F500A3
:102AF80072187F2D832D831203130915862D8312D7
:102B080003130911750888008914A630F300F30B24
:102B18008B2D00008312031389101B30F4009E30A4
:102B2800F300F30B952DF40B952D00000800583495
:102B380091345E349134EB34903439349134CB345D
:102B48009034A934903423349134D6349034FF34FB
:102B5800903412349134F5349034C03490346E3457
:102B680091347334913432349134643491347734F9
:102B78009134803083120313C3064708F5004608D2
:102B8800F4004508F3004408F2004308F90042083D
:102B9800F8004108F7004008F6000A128A15A8252F
:102BA8000A168A11750883120313C3007408C20039
:102BB8007308C1007208C000080083120313A40040
:102BC800A001A1017208F400F5017408A2007508BB
:102BD800A300241CF02DF12DF72D2208A0070318BF
:102BE800A10A2308A10701300310A20DA30DFF3E7F
:102BF800031DF82D0310A40C2408031D042E052E14
:102C0800ED2D2108F3002008F200080083120313B9
:102C18008C1C0F2E102E3D2E013083160313C20775
:102C28000318C30A0030C307203042064E30031988
:102C38004306031D202E212E3B2EC201C301831201
:102C480003136A080319292E2A2E2D2E0130EA02B1
:102C58003B2E6A08031D312E322E3B2E6B080319BA
:102C6800362E372E3B2E0130EB023B30EA00831222
:102C78008C1071088A00700E8300FE0E7E0E09000B
:102C8800C330F700CD30F600F60B482EF70B482E70
:102C9800F20133300A168A117B250A168A111B3075
:102CA800F7009E30F600F60B572EF70B572E000054
:102CB800F20133300A168A117B250A168A11A630CA
:102CC800F600F60B652E0000F20133300A168A1161
:102CD8007B250A168A11702E712E0000F201303001
:102CE8000A168A117B250A168A11A630F600F60BF9
:102CF8007B2E0000F20101300A168A117B250A1684
:102D08008A11A630F600F60B872E0000F2010C306F
:102D18000A168A117B250A168A11A630F600F60BC8
:102D2800932E000008008312031306189C2E9D2E74
:102D3800EC2E0711121187140A168A112D250A166E
:102D48008A119130F6009030F7008030F8000A12AE
:102D58008A1509200A168A116B30F6009030F700A0
:102D68009030F8000A128A1509200A168A1183126F
:102D78000313061CC02EC12EBB2E0A168A112D2540
:102D88000A168A118530F6009030F7008030F80076
:102D98000A128A1509200A168A112B30F60091307A
:102DA800F700C030F8000A128A1509200A168A119D
:102DB8000030F6009030F700D030F8000A128A157B
:102DC80009200A168A118312031307151215871092
:102DD8000800F701F51FF12EF22EF92EF409F50976
:102DE800F40A0319F50AF701F70AF31FFC2EFD2E62
:102DF800022FF209F309F20A0319F30A720873049D
:102E08000319072F082F372FF601F60A162F01305E
:102E18000310F20DF30DFF3E031D0C2F0130FF00D0
:102E28007F08F607F31F192F1A2F0B2F7308750247
:102E3800031D202F72087402031C232F242F2A2F0E
:102E48007208F4027308031CF503F502013003103D
:102E5800F30CF20CFF3E031D2B2F0130F602031D6D
:102E6800362F372F1A2F770803193B2F3C2F412F66
:102E7800F409F509F40A0319F50A7508F30074084A
:102E8800F200080083120313A5012508803EA00064
:102E9800FF300A168A114D250A168A110130FF00E3
:102EA8007F0883120313A50710302502031C5D2F2A
:102EB8005E2F492F9D30F6009030F700C230F800A1
:102EC8000A128A1509200A168A112230F600903053
:102ED800F7009130F8000A128A1509200A168A119B
:102EE80083120313A6012608D03EA000FF300A165D
:102EF8008A114D250A168A110130FF007F088312B6
:102F08000313A60710302602031C8B2F8C2F772F54
:102F18001A3083120313A4005E30A3006D30A200A0
:102F2800A20B942FA30B942FA40B942F9B2F0A165C
:102F38008A112D250A168A110800F3007308031D4B
:102F4800A62FA72FAC2F8312031306083F39FF2F94
:102F58003F30831203130605F2003F30720603194F
:102F6800B62FB72FC22F6C080319BB2FBC2FC22F47
:102F7800EC01E90106083F39E800FE2F6C08031D43
:102F8800C62FC72FD92F06083F396806031DCD2F36
:102F9800CE2FD92F1E3069020318D32FD42FD92F43
:102FA8000130FF007F08E907FE2F1E306906031D68
:102FB800DE2FDF2FE62F0130FF007F08E9076808C2
:102FC8008038FF2F3F300605F2003F307206031DA0
:102FD800EE2FEF2FFE2F6C08031DF32FF42FFE2F7B
:102FE800EC01EC0A1E3069020318FB2FFC2FFE2FA0
:082FF8006808FF2F3F300800BC
:02400E00FB3F76
:00000001FF
